:020000040800F2
:1000000000040020C1030008A1050008A1050008A4
:10001000A1050008A1050008A1050008A105000828
:10002000A1050008A1050008A1050008C1050008F8
:10003000A1050008A1050008A1050008A106000807
:10004000A1050008A1050008A1050008A1050008F8
:10005000A1050008A1050008A1050008A1050008E8
:10006000A1050008A1050008A10500085114000819
:1000700081140008B1140008E114000811150008EB
:100080004115000871150008611D0008A105000850
:10009000A1050008A1050008A1050008A1050008A8
:1000A000A1050008411E0008A1050008211E000846
:1000B000A1050008611E0008A1050008A1050008AF
:1000C000A1050008A1050008A1050008A105000878
:1000D000A105000881220008A1220008C122000811
:1000E000A1050008A1050008A1050008A105000858
:1000F000C11E0008A1050008A11E0008A1150008E6
:10010000A1050008A1050008811E0008A10500083E
:10011000A1050008A1050008A1050008A105000827
:10012000D1150008011600083116000861160008F4
:1001300091160008A1050008A1050008A105000806
:10014000A1050008A1050008A1050008A1050008F7
:10015000C1160008F116000821170008A1050008C3
:10016000A1050008A1050008A1050008A1050008D7
:10017000A1050008A1050008A1050008A1050008C7
:08018000A1050008A10500081B
:1001900010B543F69030C0F6000007C884B00023C5
:1001A0008DE80700039301F013F800F0E9FA40F638
:1001B000E4206946C2F2000001F002F941F2D020C9
:1001C000C2F2000000F03CFD40F63440C2F20000F4
:1001D00003F01EFA02F09CFF02F0DAFF03F098F839
:1001E00003F056F902F0E4FE03F032F802F020FDCD
:1001F00040F6E42043F6B071C2F20000C0F6000100
:1002000002F076FA03A803F0C3F940F6344040F652
:10021000E421C2F20000C2F2000103F031FAF1E77A
:1002200040F60003C2F2000370B41D6810F8013BF1
:10023000EC181A46647804F00304012C11F8014B01
:1002400008BF03F120022E192346767806F0030634
:10025000012E08BF04F12003D21A01D1002BE5D1F1
:10026000104670BC704700BF000000000000000096
:10027000C9B2F0B4002946D0820710D00378002B11
:100280006CD0994218BF024606D13AE012F8013FFD
:10029000002B63D0994234D001308307F6D1036834
:1002A00041EA0127A3F1013247EA074722EA0302A4
:1002B00012F0803F1CD17B40A3F1013222EA0303FC
:1002C00013F0803F14D1044602E012F0803F0FD1BA
:1002D00054F8043F0430A3F1013687EA030226EA0A
:1002E0000303A2F1013513F0803F25EA0202ECD0AE
:1002F000037823B932E043780130002B2ED09942A5
:10030000F9D1F0BC704783070AD00378024623B9BD
:10031000F7E712F8013F002BF3D001308107F8D145
:1003200003680246A3F1013121EA030313F0803F81
:100330000AD1014651F8043F0432A3F1013020EA0A
:10034000030313F0803FF5D013781046002BD8D06C
:1003500012F8013F0130002BFAD1D2E71846D0E75E
:10036000F0B40478CCB10E780746A6B10546B44285
:1003700018BF0A4602D108E09C4206D012F8013F9D
:10038000002BF9D1281AF0BC704717F8014F01353E
:10039000002CECD1F6E73046F5E72046F3E700BF46
:1003A000704700BFAFF30080AFF30080AFF3008071
:1003B000FEE700BFAFF30080AFF30080AFF3008033
:1003C00072B640F60001C2F2000181F309880223EF
:1003D00083F31488BFF36F8F40F2000240F20044B1
:1003E000C2F20002C2F20004A24217D213464FF03A
:1003F000553043F8040BD643A519A342C5F3800535
:100400000CD225B1186002F10803A34206D21A46A5
:1004100042F8040B5860131DA342F8D340F2004287
:10042000C2F200028A4217D213464FF0553043F809
:10043000040BD5434C198B42C4F380040CD224B175
:10044000186002F108038B4206D21E4646F8040BE0
:100450005860331D8B42F8D302F03AF940F6140489
:1004600040F60001C2F20001C2F20004A14225D20E
:1004700044F21010C0F6000002460B4652F8046B1E
:1004800043F8046BCD4304EB050CA342CCF3800589
:1004900014D23DB116681E6001F10803A34200F1B9
:1004A00008020BD21146184651F8045B526840F816
:1004B000045B5A60031D0A1DA342F3D340F61802E1
:1004C00041F63870C2F20002C2F20000824217D236
:1004D0001346002143F8041BD44300EB040E83426F
:1004E000CEF380040CD224B1196002F108038342D8
:1004F00006D21E4646F8041B5960331D8342F8D3CA
:1005000040F2881540F28816C0F60005C0F60006D5
:10051000FFF746FFB54219D22C46E94354F8043B95
:1005200077189847B442C7F380070FD22FB12368DA
:1005300005F108049847B44208D2254655F8042B23
:10054000904760682C1D8047B442F6D340F288156E
:1005500040F28816C0F60005C0F60006FFF718FE48
:10056000B5421AD22C46EF4354F8043B06EB070C75
:10057000CCF380079847B4420FD22FB1226805F11F
:1005800008049047B44208D2254655F8040B80472A
:1005900061682C1D8847B442F6D3FFF709FF00BFFE
:1005A000FEE700BFAFF30080AFF30080AFF3008041
:1005B00000F056FA00DF00BFAFF30080AFF3008019
:1005C000EFF30983203383F30988002383F3118831
:1005D000704700BFAFF30080AFF30080AFF300803F
:1005E00008B54FF46D43CEF200030022C0F2FA5278
:1005F0000021996007201021DA6000F099F80A20A4
:100600004FF4007100F094F80B208021BDE8084001
:1006100000F08EB8AFF30080AFF30080AFF300803E
:10062000202383F311884FF46D40CEF2000043681D
:1006300013F400631FD0EFF30982A2F1200C8CF3B6
:10064000098840F63013C2F200034FF080709969B8
:1006500042F8040C91B11868DB6981689B68994283
:1006600094BF002301239BB140F2B151C0F60001B9
:1006700042F8081C704783F3118870471868DB69DB
:1006800081689B68994234BF00230123002BEBD182
:1006900040F2B453C0F6000342F8083C704700BF74
:1006A00008B5202383F3118800F0A2F8002383F318
:1006B0001188BDE80840FFF7B3BF00BFAFF300806B
:1006C0002DE9F04FC1F80CD0D0F80CD0BDE8F08F78
:1006D000002383F311882846A04700F089FA704769
:1006E000F0B44FF461438408CEF20003C03400F04C
:1006F000030253F82470D500FF26420906FA05F6D6
:1007000027EA060601FA05F500F01F0C02F1600762
:10071000012101FA0CF02E4343F8246043F827002E
:1007200043F82200F0BC7047AFF30080AFF30080C5
:1007300030B44FF46D438508CEF20003AA1D00F0DB
:10074000030053F82250C000FF2404FA00FC25EAFD
:100750000C0401FA00F0044343F8224030BC704717
:1007600040F63010C2F2000043F6D043C269C0F632
:1007700000039361FEE700BFAFF30080AFF300809A
:1007800030B583B0FFF72CFF00F0D2F800F058F836
:1007900000F08EFC00F0C4FC40F618004021C2F2CC
:1007A000000000F07DF940F63014C2F2000401228E
:1007B000E0610277002383F3118862B643F6E041DB
:1007C000E569C0F600011C4640F6600040F2617326
:1007D000A961C0F60003C021C2F20000009400F03D
:1007E000B7F903B030BD00BFAFF30080AFF30080B6
:1007F00038B540F63013C2F200039A69002A01DDD1
:10080000013A9A61DB69186A40F62014C2F20004CA
:10081000421C1A62E1682368481CA342E0600ED0C3
:100820009D68013D9D6055B91968DA681869DD60F9
:100830004C6021609047236899680029F4D038BD46
:1008400040F62013C2F200034FF0FF3000225B603D
:100850001B609860DA607047AFF30080AFF30080F0
:1008600030B440F62014C2F2000403612568C2606F
:10087000AB68994204D92D68C91AAB688B42FAD388
:100880006B688160A54243600560186018BFAB6863
:1008900068601CBFC1EB0301A96030BC704700BF9A
:1008A000036840F62012C2F2000293421FBF99680B
:1008B00082688A189A6042681360016800234A605F
:1008C000C3607047AFF30080AFF30080AFF30080E8
:1008D000037F0D2B11D8DFE803F023101007100B56
:1008E000101010101010100B416A8B685A1C8A608F
:1008F00090E80C001A60026853604FF0FF3240F637
:1009000030134262816800220277C2F200031B6842
:100910009A688A42FBD25968036041600860586057
:10092000704700BFAFF30080AFF30080AFF30080EB
:1009300040F63013C2F20003002014225B601B60FB
:1009400098609A615B611B61704700BFAFF30080E4
:1009500040F63013002281680277C2F200031B6860
:100960009A688A42FBD25968036041600860586007
:10097000704700BFAFF30080AFF30080AFF300809B
:1009800040F63013C2F2000330B41A68D969146813
:100990000877142098610125104663601C60DA61B5
:1009A000157730BCFFF78CBEAFF30080AFF300804B
:1009B00030B54B1C87B0054617D040F63014C2F254
:1009C000000440F6D102E369C0F6000201A8FFF777
:1009D00047FF2846FFF7D4FF049B13B101A8FFF798
:1009E0005FFFE069406A07B030BD40F63014FFF7A2
:1009F000C7FFC2F20004F4E7AFF30080AFF300805A
:100A000040F63012C2F2000230B4D4698568034661
:100A1000A06859620021854284BF217711460BD816
:100A20001977126891688D42FBD950681A60586036
:100A30000360536030BC704709688D68A842FBD9D9
:100A40004868216060604C6001210460D3611846F1
:100A5000197714232146936130BCFFF731BE00BFE4
:100A600040F63013C2F2000330B41868D969026846
:100A70008C681A6014259D6153600122D861027749
:100A8000002203460A7700E01B689A68A242FBD264
:100A90005A680B604A601160596030BCFFF710BEA5
:100AA000F0B440F63014C2F200040022656901641B
:100AB00000F12C06816000F1280702230121046166
:100AC0004561037760614277C26382630262817726
:100AD0008261286187620663C662F0BC704700BF0E
:100AE0002DE9F00740F63015C2F20005A1F1240C03
:100AF00000EB0C07D5F81490C76040F2D16140F8C4
:100B00000C30079BC0F600017B60396200269046DE
:100B100000F1280A00F12C02022101230561C0F82E
:100B20000880C0F81490017768614677C0F840806B
:100B3000C6638663066283778661C9F81000C0F8D1
:100B400028A00263C262BDE8F0077047AFF30080DF
:100B500010B59C4682B0202383F31188049C634621
:100B60000094FFF7BDFF00210446FFF749FF002373
:100B700083F31188204602B010BD00BFAFF30080A0
:100B800008B50146202383F311880620FFF710FFE4
:100B9000002383F3118808BDAFF30080AFF300801A
:100BA00038B540F63013C2F20003DC6925466062B6
:100BB00055F8280FA84206D00168A162FFF7C8FEC9
:100BC000A06AA842F8D194F81DC05FEA8C7001BFFA
:100BD000226960690261226908BF50610E20BDE888
:100BE0003840FFF7CDBE00BFAFF30080AFF3008009
:100BF000202383F31188FFF7D3BF00BFAFF300803A
:100C000070B582B00C4615461E4600F099FAA8B1A0
:100C1000202383F311882146069C33462A460094FC
:100C2000FFF75EFF0123437700210446FFF7E8FE4C
:100C3000002383F31188204602B070BD0446FAE712
:100C40000023406000608360704700BFAFF3008006
:100C5000F8B540F630130546C2F200038068DC693F
:100C6000002850D0A26881688A4206D9037F82603A
:100C7000042B30D0052B1BD093B12B461B689D4213
:100C800003D09868A2689042F8D259682360042083
:100C900061600C605C606562BDE8F840FFF770BEA3
:100CA00090E80C001A6001684B60FFF751FEE4E722
:100CB00041680768466A0F600768334679601B68B9
:100CC0009E4202D099689142F9D25A68036042600C
:100CD00010605860D1E741680768466A0F6007688E
:100CE000334679601B689E4212D099689142F9D2CE
:100CF0005A680360426010605860B068A2688368F8
:100D00009342B3D3B9E7E36BAC60EB60E563F8BD46
:100D10003346EDE7AFF30080AFF30080AFF3008020
:100D200008B5202383F31188FFF792FF002383F394
:100D3000118808BDAFF30080AFF30080AFF30080EF
:100D400040F63012C2F20002F8B5D269202383F3D4
:100D50001188D46B2368E168A342D1631CD0176C5F
:100D600049B10868884203D08068874238BF074687
:100D7000C9680029F5D11D68DE6B976018462560AB
:100D800000216C60A360E660DC63FFF739FE00239E
:100D900083F311882046F8BD0023A360002383F36A
:100DA00011882046F8BD00BFAFF30080AFF300808C
:100DB00008B5826B037F0A43082B82630CD0092B92
:100DC00000D008BD436A02EA03018B42F9D1FFF764
:100DD000BFFD0022426208BD436A1A42F7D108BD36
:100DE00070B50468A04205460E4607D0A168606849
:100DF0003143FFF7DDFF2468A542F7D170BD00BF86
:100E000010B4024671B140F63014C2F200040D2055
:100E1000E3695A62546883E814005360236010BC8D
:100E2000FFF7C6BD4FF0FF3010BC7047AFF3008036
:100E300010B48A18002440600060846041618161C0
:100E4000C1600261C36110BC704700BFAFF3008096
:100E5000426908B5034680698242986818D001301B
:100E6000986002F8011B19695A618A4228BFDA6842
:100E7000186828BF5A61984208D002681A60536007
:100E8000FFF766FD00234362184608BD002008BD39
:100E90000028E4D06FF0030008BD00BFAFF300806E
:100EA00070B5202304460D4683F31188C36903B14E
:100EB0009847A6684EB920462946FFF7A1FF0028AB
:100EC000F7DA334683F3118870BDA3692269013EC6
:100ED000A66013F8010B9342A36124BFE368A361EA
:100EE000002383F3118870BDAFF30080AFF300805F
:100EF0002DE9F0471D4604460E469146D0F81C8069
:100F0000202383F311880027B8F1000F01D0204679
:100F1000C047D4F808A0BAF1000F0BD120462946EB
:100F2000FFF76EFF0028F4D0534683F3118838464C
:100F3000BDE8F087A3690AF1FF31A16013F8010B46
:100F4000F0552269A361934224BFE368A3610023A3
:100F500083F3118801374F45E9D0202383F31188AB
:100F6000D2E700BFAFF30080AFF30080AFF30080A3
:100F700010B48C1840600060826041618161C16082
:100F80000461C36110BC7047AFF30080AFF3008011
:100F9000F8B504460D461646202383F31188A7684A
:100FA0004FB920463146FFF72BFF0028F7DA3B46C2
:100FB00083F31188F8BD6369013FA76003F8015B03
:100FC00022696361934224BFE3686361E3690BB103
:100FD00020469847002383F311881846F8BD00BFC8
:100FE00041698269914210B50346816816D04C1C54
:100FF0009C6012F8014B18699A61824228BFDA6836
:10100000186828BF9A61984206D002681A60536037
:10101000FFF79EFC00234362204610BD0029E6D066
:101020006FF0020010BD00BFAFF30080AFF300808F
:101030002DE9F0471E4604460D461746D0F81C9091
:10104000202383F311884FF00008D4F808A0BAF1E8
:10105000000F21D00AF1FF31A1606369287803F8FD
:10106000010B22696361934224BFE3686361B9F1B4
:10107000000F01D02046C847002383F31188013FA9
:1010800008F1010811D00135202383F31188D4F829
:1010900008A0BAF1000FDDD120463146FFF7B0FEBF
:1010A0000028D2D0534683F311884046BDE8F0872C
:1010B000094940F6541240F650134CF2000CC2F2AB
:1010C0000002C2F20003C2F2010C21F007002CF072
:1010D00007011060196070473F1F0020AFF30080C8
:1010E000202383F3118840F6541340F6501CC2F2BB
:1010F0000003C2F2000C1A68DCF80010073020F080
:101100000700891A88429ABF10181860002200232D
:1011100083F3118810467047AFF30080AFF300806F
:1011200040F65813C2F2000341F2E1020021C0F67A
:10113000000203F110001A609960D960FFF780BDCA
:10114000F8B540F65814C2F20004002818BF04464F
:10115000073104F1100021F0070604F10805FFF73C
:10116000DFFD00E01D462B6803B35A689642F9D8AC
:1011700006F108018A4216D34FF6F870CFF6FF70D9
:101180005F18D3F800E0C6EB000C0CEB020043F84C
:1011900001E078602F605E601D4645F8084BFFF760
:1011A000CFFD2846F8BD1A682A60F5E7FFF7C8FDAD
:1011B0002568002DF5D006F10800A847054600284F
:1011C000EFD000F1080580E850002846F8BD00BFC8
:1011D00008B500F0ADFB43F60060C0F6000001F07A
:1011E0007FF900F00DF800F043F800F0C1F800F0CE
:1011F0001FF9BDE8084001F073BA00BFAFF30080EB
:1012000000F076BCAFF30080AFF30080AFF3008056
:1012100000230122027043608360C3600361436165
:101220001830FFF70DBD00BFAFF30080AFF30080B3
:1012300010B52023044683F31188416000F078FC48
:1012400002232370002383F3118810BDAFF30080C5
:1012500038B51D46202383F3118803230370826071
:10126000C560016100F09CFC002383F3118838BD48
:1012700000F036BEAFF30080AFF30080AFF3008024
:101280000121002301704360704700BFAFF300806D
:1012900010B52023044683F31188416000F058FE06
:1012A00002232370002383F3118810BDAFF3008065
:1012B00010B52023044683F3118800F009FF0323AF
:1012C0002370002383F3118810BD00BFAFF30080AB
:1012D000806BD0F1010038BF00207047AFF3008071
:1012E0008069D0F1010038BF00207047AFF3008063
:1012F0000246202383F3118800238068936083F3E0
:1013000011887047AFF30080AFF30080AFF3008027
:101310001030FFF7EDBD00BFAFF30080AFF30080EA
:1013200010304FF0FF33FFF7E3BD00BFAFF3008095
:101330003030FFF77DBE00BFAFF30080AFF3008019
:1013400030304FF0FF33FFF773BE00BFAFF30080C4
:101350001030FFF7A5BD00BFAFF30080AFF30080F2
:101360003030FFF715BE00BFAFF30080AFF3008051
:1013700000F0B6BFAFF30080AFF30080AFF30080A2
:1013800070B543F600530646C0F60003044646F81F
:10139000043B66600026A66001260B461546103009
:1013A00004F1500110222673FFF742FD04F13000D2
:1013B00004F1600110222B46BDE87040FFF7D8BD54
:1013C00010B52023044683F3118800F0C1FF0223E7
:1013D0002373002383F3118810BD00BFAFF3008097
:1013E00038B50D468169044639B104F1100029462B
:1013F000FFF72EFD00280EDB38BD826842F00403A3
:1014000083600430FFF7ECFC04F110002946FFF77D
:101410001FFD0028F0DAA16841F08000A0600021E3
:10142000201DBDE83840FFF7DBBC00BFAFF30080F4
:1014300001F016B8AFF30080AFF30080AFF3008087
:10144000002301220270436083600C30FFF7F8BB79
:1014500040F67812C2F200024FF4C040C4F202001B
:101460001368016810B53D24846013B150682140B1
:101470009847BDE81040FFF7D3B800BFAFF3008036
:1014800040F67812C2F200024FF4C040C4F20200EB
:101490009368016810B54FF47464846023B18909BE
:1014A000D06801F03D019847BDE81040FFF7B8B89B
:1014B00040F67812C2F200024FF4C040C4F20200BB
:1014C0001369016810B54FF47414846023B1090CDA
:1014D000506901F03D019847BDE81040FFF7A0B802
:1014E00040F67812C2F200024FF4C040C4F202008B
:1014F0009369016810B54FF07464846023B1890D5D
:10150000D06901F03D019847BDE81040FFF788B869
:1015100040F67812C2F200024FF4C040C4F202005A
:10152000136A416810B53D24C46013B1506A21406C
:101530009847BDE81040FFF773B800BFAFF30080D5
:1015400040F67812C2F200024FF4C040C4F202002A
:10155000936A416810B54FF47464C46023B189097B
:10156000D06A01F03D019847BDE81040FFF758B838
:1015700040F67812C2F200024FF4C040C4F20200FA
:10158000136B416810B54FF47414C46023B1090C97
:10159000506B01F03D019847BDE81040FFF740B89F
:1015A00040F67812C2F200024FF4C040C4F20200CA
:1015B000936B416810B54FF07464C46023B1890D1A
:1015C000D06B01F03D019847BDE81040FFF728B807
:1015D00040F67812C2F200024FF4C840C4F2020092
:1015E000136C016810B53D24846013B1506C214028
:1015F0009847BDE81040FFF713B800BFAFF3008075
:1016000040F67812C2F200024FF4C840C4F2020061
:10161000936C016810B54FF47464846023B1890938
:10162000D06C01F03D019847BDE81040FEF7F8BFCF
:1016300040F67812C2F200024FF4C840C4F2020031
:10164000136D016810B54FF47414846023B1090C54
:10165000506D01F03D019847BDE81040FEF7E0BF36
:1016600040F67812C2F200024FF4C840C4F2020001
:10167000936D016810B54FF07464846023B1890DD7
:10168000D06D01F03D019847BDE81040FEF7C8BF9E
:1016900040F67812C2F200024FF4C840C4F20200D1
:1016A000136E416810B53D24C46013B1506E2140E3
:1016B0009847BDE81040FEF7B3BF00BFAFF300800E
:1016C00040F67812C2F200024FF4C840C4F20200A1
:1016D000936E416810B54FF47464C46023B18909F6
:1016E000D06E01F03D019847BDE81040FEF798BF6D
:1016F00040F67812C2F200024FF4C840C4F2020071
:10170000136F416810B54FF47414C46023B1090C11
:10171000506F01F03D019847BDE81040FEF780BFD3
:1017200040F67812C2F200024FF4C840C4F2020040
:10173000936F416810B54FF07464C46023B1890D94
:10174000D06F01F03D019847BDE81040FEF768BF3B
:101750002DE9F00F40F6F8148AB0C2F2000446F208
:10176000B8000394C4F2020046F210440290C4F29E
:10177000020446F240400194C4F2020046F258448A
:101780000490C4F2020446F270400594C4F20200D0
:1017900046F288440690C4F2020446F2A040079440
:1017A000C4F2020046F2B8440890C4F2020403985E
:1017B000099446F2100A002440F6781346F22809EC
:1017C00046F2400846F2580C46F2700746F2880688
:1017D00046F2A005C2F200030460C4F2020A0298B5
:1017E000CAF80040C4F20209C4F20208C4F2020CB2
:1017F000C4F20207C4F20206C4F2020546F2284B04
:101800001C60C4F2020BC9F800409C60C8F800409C
:101810001C61CCF800409C613C601C6234609C629E
:101820002C601C63046001989C6304601C64CBF80A
:1018300000409C640498046005981C650460069848
:101840009C65046007981C66046008989C664FF4C9
:10185000C04104604FF4C84209981C67C4F20201F9
:10186000C4F2020204609C674FF0FF338B60CB60D0
:101870009360D3600AB0BDE8F00F7047AFF300800B
:101880002DE9F04140F6F814C2F20004457A2668CA
:101890004FF0010C0CFA05F737423ED140F6781CA8
:1018A000C2F2000C3E430CEBC50816F0FF0FC8F85F
:1018B00004301CBF4FF46053C4F20203266018BF0B
:1018C0001C6B4CF835201CBF44F400141C6316F448
:1018D0007F4F1FBF4FF46053C4F202031C6B44F4EC
:1018E000800418BF1C6303681D6825F01F041C607A
:1018F0001F6817F00104FBD1067A45683D2707FAF7
:1019000006F62E6021251C605D614AB1807A0901CE
:10191000FEF7E6FE2046BDE8F0816046BDE8F081B6
:101920001046BDE8F08100BFAFF30080AFF3008048
:101930004FF46053C4F2020370B400224FF0FF343E
:1019400019691C611A6159695C615A611D6A4EF21C
:10195000100CCEF2000C65F080564EF6F05049F2B5
:101960003F051E62CEF200001A620721C0F2020596
:101970005E6A5C625A62CCF80450CCF80820CCF85D
:101980000010C4684FF4805CCEF2000C44F0807408
:10199000C460DCF8001041F00100CCF80000196CC4
:1019A0004FF4E04C41F08050C4F2000C1864DCF8B5
:1019B000001041F48070CCF80000186F00F4407102
:1019C000B1F5007F1EBF4FF4803119671A674FF4DD
:1019D0006053C4F202031A6F120407D41A6F42F460
:1019E00000711967186F40F400421A6770BCFFF766
:1019F000AFBE00BFAFF30080AFF30080AFF3008055
:101A00004FF460524FF4E043C4F20003C4F2020208
:101A10004FF080504FF4804110641A4619605168AD
:101A20004904FCD54FF4605CC4F2020C6146DCF85A
:101A3000003043F00100CCF800000A684FF4605316
:101A40009207C4F20203F8D5186840F48031196097
:101A500019460A684FF460539003C4F20203F8D5A4
:101A6000586F40F00101596719464A6F4FF46053AF
:101A70009207C4F20203F8D545F20842C0F2407260
:101A80005A60186840F080711960194608684FF470
:101A900060538001C4F20203F8D598684FF41442F1
:101AA0004FF4705CC3F60802C4F2020C40EA020173
:101AB00040F205709960CCF800009A6842F002018B
:101AC0009960996801F00C0C4FF46052BCF1080F5A
:101AD000C4F20202F5D1536C43F480415164506E5C
:101AE00040F4804353667047AFF30080AFF300804B
:101AF00010B540F6FC14C2F200042046FFF788FB44
:101B00004FF40052C4F20102A26242F61643054AA3
:101B1000C0F2020312205021E2622363BDE81040AC
:101B2000FEF7DEBDC03D0008AFF30080AFF30080DC
:101B30000378012B10B5044600D010BD40F6FC110F
:101B4000C2F20001884212D04FF40C5CC4F2010CC6
:101B5000A36ADCF8041001F4400242F48030002152
:101B6000CCF80400596099600121996010BD41F6DC
:101B700051420521C0F600022346C06AFFF780FEED
:101B8000E06A42F24C0201684FF46050C4F2020075
:101B9000C4F201028A60436C43F480724264D3E76A
:101BA0000369026B19682DE9F00309B142F48072F0
:101BB000C768C16A9D8809688668D3F810C0CE607E
:101BC000012F88BF42F0080207FB05F44C600A6051
:101BD000D1F80090D3F81880DF691E6A5D6A9C6AAC
:101BE0005B69826A49F00109C1F800904CF0806C91
:101BF000002113F0804F43F440734CF4807014BF05
:101C000043F0030343F001031160C2F80C80176135
:101C1000D6621563546350609360BDE8F00370476B
:101C2000C16A0A6810B4146824F01F0313601368B3
:101C300013F00103FBD10C7A826A49683D2000FA57
:101C400004F00860012053609360906010BC7047FE
:101C500011F00C0F38B50D46044647D10369002B2F
:101C600043D0CA0605D59B681BB1C268816852087B
:101C70009847AB0639D521690B687BB18B68002B7F
:101C800033D0E268012A50D98D88A168520805FB3B
:101C900002F5204601EB4501984738BD2046FFF785
:101CA000BFFF21698B68002B4FD0E2680420012A16
:101CB000207046D9B1F804C0A16852080CFB02F5A7
:101CC000204601EB450198472278042A34D020238E
:101CD00083F3118863692BB10022626118465A624E
:101CE000FEF736FE002383F3118838BDFFF798FF17
:101CF0002369DB683BB1052220460021227098470A
:101D00002078052815D000222261202383F3118832
:101D1000636933B162614FF0FF3218465A62FEF7D1
:101D200017FE002383F3118838BD2046A168984729
:101D300038BD02212170E6E70220002320702361D4
:101D4000C5E72046A1689847BEE7022121702361BC
:101D5000BDE700BFAFF30080AFF30080AFF30080BA
:101D60004FF40053C4F2010300211A6810B5196042
:101D700091062BD540F6FC14C2F20004E16A0A6811
:101D8000506818B323690BB32046FFF749FF206959
:101D9000C3683BB105212170204601219847227874
:101DA000052A17D0002140F6FC12C2F20002216180
:101DB000202383F31188606928B14FF0FF33436219
:101DC0005161FEF7C5FD002383F31188BDE8104083
:101DD000FEF726BC02232370E4E700BFAFF30080C8
:101DE00038B5C368198A9D8900220D401A82AA0756
:101DF000044609D590F800C00422BCF1030F02701C
:101E000002D04168CB6898476B0705D56068052309
:101E1000826823702046904738BD00BFAFF3008032
:101E200008B540F66020C2F20000FFF7D9FFBDE818
:101E30000840FEF7F5BB00BFAFF30080AFF30080B2
:101E400008B540F66020C2F20000FFF7C9FFBDE808
:101E50000840FEF7E5BB00BFAFF30080AFF30080A2
:101E600008B540F63020C2F20000FFF7B9FFBDE828
:101E70000840FEF7D5BB00BFAFF30080AFF3008092
:101E800008B540F64020C2F20000FFF7A9FFBDE808
:101E90000840FEF7C5BB00BFAFF30080AFF3008082
:101EA00008B540F65020C2F20000FFF799FFBDE8E8
:101EB0000840FEF7B5BB00BFAFF30080AFF3008072
:101EC00008B540F65020C2F20000FFF789FFBDE8D8
:101ED0000840FEF7A5BB00BFAFF30080AFF3008062
:101EE00070B540F66024C2F200042046FFF7C8F93E
:101EF00040F630260023C4F20103C2F20006E3607C
:101F0000304640F64025FFF7BBF9C2F200054FF41A
:101F10008062C4F20002284640F65024C2F2000457
:101F2000F260FFF7ADF94FF44061C4F200012046C2
:101F3000E960FFF7A5F94FF48063C4F20103E360A1
:101F400070BD00BFAFF30080AFF30080AFF300803F
:101F50000378012B10B504461ED0C36800201880FA
:101F6000988118825863986358626268A0685168C3
:101F70001278B0FBF1F1481E4FF6FF711885D96257
:101F800040F2012054211883198112B113201884C2
:101F900010BD3121198410BD40F66021C2F200014C
:101FA000884235D040F6302CC2F2000C604550D04B
:101FB00040F64022C2F20002904268D040F6502C17
:101FC000C2F2000C644501D0E368CEE74FF4605ED6
:101FD000C4F2020EDEF8442042F00203CEF8443090
:101FE000DEF82410002241F00200CEF82400702117
:101FF0002E20CEF82420FEF773FB2C207021FEF754
:102000006FFB4FF4F443C0F60323A360E368ACE72F
:102010004FF4605CC4F2020CDCF8442042F0010092
:10202000CCF84400DCF82410002241F00103CCF885
:1020300024301B207021CCF82420FEF751FB1920FE
:102040007021FEF74DFB4FF4F440C0F60320A06072
:10205000B4E74FF4605EC4F2020EDEF8401041F0C7
:102060000203CEF84030DEF82020002142F00200CA
:10207000CEF82000CEF820101D207021FEF730FB96
:102080004FF43D43C0F20153A360E3686DE74FF4A2
:10209000605CC4F2020CDCF8401041F00800CCF89F
:1020A0004000DCF82020002142F00803CCF820306A
:1020B0003220CCF820107021FEF712FB4FF43D4087
:1020C000C0F20150A060E3684FE700BFAFF30080AB
:1020D0004268C368D1680020188229B1988981B20A
:1020E00041F0020CA3F80CC0926832B1B3F80CC0F6
:1020F0001FFA8CF040F00401998105221A80704784
:102100004FF48053C4F20103998988B240F08002F1
:102110009A817047AFF30080AFF30080AFF3008087
:102120004FF48843C4F20003998988B240F08002DA
:102130009A817047AFF30080AFF30080AFF3008067
:102140004FF49043C4F20003998988B240F08002B2
:102150009A817047AFF30080AFF30080AFF3008047
:102160002DE9F041066FB7893488B6F80480A4B22F
:1021700022070546BFB21ED014F0080C18BF4FF05E
:10218000800CE30748BF4CF0200CA00748BF4CF080
:10219000400C610748BF4CF4807C202383F31188F6
:1021A000AB6843EA0C02AA60281D0021FEF718FE66
:1021B000002383F31188E3052ED4A00620D439062A
:1021C00001D522063ED4630618D5202383F3118857
:1021D000A86840F01003AB60281D0021FEF700FE48
:1021E000002383F311884FF6BF7207EA0201B18121
:1021F000308820F040031A04110C3180BDE8F081D2
:10220000202383F3118828465FFA88F1FFF7E8F866
:10221000002383F31188D2E7202383F31188A86871
:1022200040F40073AB60281D0021FEF7D9FD0023A8
:1022300083F31188B6F800C02CF480721104080CE6
:102240003080BAE7202383F3118805F13000FEF7D0
:10225000C7FE0028A8BFB08003DB002383F31188EA
:10226000B1E7A86840F008030021AB60281DFEF725
:10227000B7FD27F0C00242F04001B181EDE700BF99
:1022800008B540F67020C2F20000FFF769FFBDE814
:102290000840FEF7C5B900BFAFF30080AFF3008080
:1022A00008B540F6E420C2F20000FFF759FFBDE890
:1022B0000840FEF7B5B900BFAFF30080AFF3008070
:1022C00008B540F65830C2F20000FFF749FFBDE8FC
:1022D0000840FEF7A5B900BFAFF30080AFF3008060
:1022E00070B540F67026C2F2000642F20112304686
:1022F0000021C0F6000240F6E425FFF741F8C2F2E3
:1023000000054FF4805342F22112C4F20103284623
:102310000021C0F6000240F65834C2F200043367D0
:10232000FFF72EF84FF4884342F24112C4F2000343
:1023300020460021C0F600022B67FFF721F84FF47A
:102340009043C4F20003236770BD00BFAFF3008069
:1023500038B543F6F054037BC0F60004002918BFDB
:102360000C46012B054638D02B6F4FF48051C4F238
:102370000101581AD0F1000C4FF4A0524CEB0001AF
:10238000C4F20102934214BF084641F001002168E3
:10239000D8B94DF6806CC0F2802CBCFBF1F11981EC
:1023A000A088E188B4F808C040F4045241F040002D
:1023B0004CF0010142F02C0C002218829982A3F803
:1023C0000CC01A801A889B8838BD4FF43D40C0F27B
:1023D0000150B0FBF1F21A81E2E740F67021C2F23F
:1023E000000188421AD040F6E421C2F2000188427E
:1023F00023D040F65831C2F200018842B4D14FF4E4
:10240000605CC4F2020C2720DCF8403043F48022E8
:10241000CCF84020C021FEF763F9A5E74FF4605CDB
:10242000C4F2020C2520DCF8443043F01002CCF852
:102430004420C021FEF754F996E74FF4605EC4F2E1
:10244000020E2620DEF8403043F40032CEF8402061
:10245000C021FEF745F987E7AFF30080AFF30080B6
:10246000F8B540F6CC3C40F6D035C2F20005C2F2D9
:10247000000C194E28464FF0FF3740F60044C2F2D8
:102480000004ACF80070FEF7DBFF4FF44051162259
:102490004623C4F20101C0F20162C0F2016306F1F9
:1024A00024072046E9612E62AA62EB626F62FEF7A2
:1024B000C7FF4FF4605116224623A6F13C00C4F238
:1024C0000001303EC0F20102C0F20103E16120626E
:1024D0006662A262E362F8BD903D0008AFF300803F
:1024E0004FF4605CC4F2020CDCF830206FEA522337
:1024F0006FEA4321CCF83010DCF850206FEA522309
:102500006FEA4321CCF8501000230269C4F20203A1
:102510004FF4806C5A610168196042685A608168A2
:102520009960C268DA604169196282695A62C16A57
:10253000C4F2020C4FF40063CCF81410C269CCF85A
:102540000020016ACCF80410426ACCF80820816AA5
:10255000CCF80C10026BCCF82020416BCCF8241086
:10256000C4F20203826C5A61816B1960C26B5A60BB
:10257000016C9960426CDA60C16C1962026D4FF4B3
:10258000406C5A62416EC4F2020C4FF48053CCF896
:102590001410426DCCF80020816DCCF80410C26D8F
:1025A000CCF80820016ECCF80C10826ECCF82020FC
:1025B000C16ECCF82410C4F20203D0F880205A6116
:1025C000016F1960426F5A60816F9960C26FDA6063
:1025D000D0F884101962D0F888204FF4A05C5A62B9
:1025E000D0F89C10C4F2020C4FF4C053CCF8141075
:1025F000D0F88C20CCF80020D0F89010CCF8041043
:10260000D0F89420CCF80820D0F89810CCF80C1012
:10261000D0F8A020CCF82020D0F8A410CCF82410BA
:10262000D0F8B820C4F202034FF4E05C5A61D0F84D
:10263000A8101960D0F8AC205A60D0F8B01099609A
:10264000D0F8B420DA60D0F8BC101962D0F8C020FD
:10265000C4F2020C5A62D0F8D410CCF81410D0F89E
:10266000C420CCF80020D0F8C830CCF80430D0F822
:10267000CC10CCF80810D0F8D020CCF80C20D0F832
:10268000D830CCF82030D0F8DC104FF40053CCF820
:102690002410D0F8F020C4F202035A61D0F8E01000
:1026A0001960D0F8E4205A60D0F8E8109960D0F8AA
:1026B000EC20DA60D0F8F4101962D0F8F8205A62F1
:1026C000704700BFAFF30080AFF30080AFF300802E
:1026D000FFF796B9AFF30080AFF30080AFF300804F
:1026E000704700BFAFF30080AFF30080AFF300800E
:1026F0000EB42DE9F04F8AB00DF1190613A9019619
:102700000546019851F8044B0DF1180B4CF6CD46D7
:1027100043F60077CBEB0003CCF6CC46C0F60007BF
:102720000991049303960297217861B1661C2529CB
:102730000ED02A68284614694FF0FF32A04734466D
:1027400021780029F2D10AB0BDE8F04F03B07047FC
:10275000637800202D2B00F00A822E2B14BF4FF03F
:1027600020087378099F04BF4FF0300801363446C3
:102770004FF0000A07E03A7804370AEB8A0302EBCD
:10278000430A16F8013FA3F13001CAB20134092A05
:10279000F3D92A2BEFD000212E2B099753D0A3F188
:1027A0006C06724242EB06074C2B08BF47F001074C
:1027B000002F5DD02278002A00F0DD81134601341D
:1027C0000122A3F14406342E00F2CB81DFE816F09B
:1027D0008B01C901C901C901C901C901C901C901E7
:1027E000C901C901C9018901C901C901C901C901D9
:1027F000C9018101C901C9014701C901C901C90153
:10280000C901C901C901C901C901C901C901F3004F
:102810008B01C901C901C901C901C901C901C901A6
:10282000C901C901C9018901C901C901C90158000A
:10283000C9018101C901C90147013A78043701EB97
:10284000810902EB490114F8013BA3F13006F2B211
:10285000092AF4D92A2BF0D0A3F16C067242099709
:1028600042EB06074C2B08BF47F00107002FA1D110
:10287000A3F14107FAB2192A8CBF00220122A0E776
:10288000099F029A3B1D09933F68002F08BF174616
:1028900047F6FF783B78002908BF414699464FF03C
:1028A0002008002B00F09280FB4379187A78CE182C
:1028B00007F1010906F001064B46A2B1894512D085
:1028C0002EB113F8012F09F1010952B90BE05A7822
:1028D00009F10109013332B15A7809F101090133D3
:1028E0000AB18945F3D1C7EB0909C9EB0A024FF0D8
:1028F000200822EAE27A00286ED0B9F1000F30DD1C
:102900003E46286816F8011B0369FA43B94409EBEF
:10291000020728464FF0FF3298474E4507F001075F
:102920001FD04FB1286816F8011B03694FF0FF3222
:10293000284698474E4514D0274634462A6814F84E
:10294000011B136928464FF0FF3298472B687178B6
:102950002846661C4FF0FF321C69A0474E45ECD15B
:102960003C46BAF1000F3FF4DFAE2E680AF1FF3E9D
:1029700033692846764641464FF0FF320EF0010794
:102980009847002E3FF4D0AE1FB12A68284613693D
:102990000AE02868414603694FF0FF32284698470D
:1029A00029680B69013E284641464FF0FF3298479F
:1029B000013EEED1B8E6099ADDF810901168131DBA
:1029C00009938DF818104FF020085F46C9EB0A02F2
:1029D00022EAE27A002890D1CAF1000ABAF1000F87
:1029E0008BD0A8F13003D3F1000E3E784EEB0300FC
:1029F0002D2E14BF002000F00100002840F0CB80F5
:102A00002A686FEA0A0C1369284641464FF0FF32E4
:102A10000CF0010698471AF1010A3FF46EAF56B167
:102A2000296828460B694FF0FF32414698471AF152
:102A3000010A3FF462AF2868414603694FF0FF3254
:102A40002846984728680AF1010A03694146284642
:102A50004FF0FF3298471AF1010AECD14DE71027E9
:102A6000099B002A39D01A1D1B6809920DF1220119
:102A7000B3FBF7FC07FB1C3909F13006392EC8BF40
:102A800009F1370663460A4601F80169002BEFD1C8
:102A90000DF12301C2EB01096FEA0B070BEB090CE7
:102AA0000CEB0703DF0759460CD58BF800600DF1DE
:102AB000190112F8016F05E05778561C4F707678AF
:102AC0000232591C0B4603F8016B6345F4D15F4693
:102AD0007CE70A27099B002AC5D11E1D1B680996A1
:102AE000C4E70827BCE7099B002A46D11F1D1B68C5
:102AF0000997002BA8BFDC4646DB0CF10B07DDF87D
:102B00000C903946A9FB0362D20802EB8206A3EBC4
:102B100046060139303613460E70002AF2D17A1A71
:102B20000CEB02096FEA0C0709EB0703DB070592C0
:102B300062460BD5624602F8016B11F8016F05E0A1
:102B40004F784E1C5770767802315A1C134603F8A2
:102B5000016B4B45F4D105998C44CBEB0C095F46D6
:102B600034E78DF81830DDF810905F462EE7A61C8C
:102B7000A3780120F1E5012223E6191D1B680991C4
:102B8000002BA8BFDC46B8DA2D268DF818605B4212
:102B90000DF1190CB1E7296828460E694FF0FF3294
:102BA0002D21B047013709F1FF3929E7AFF3008044
:102BB000002909DD43F6107143F61C72C0F60001CE
:102BC000C0F60002FFF794BD43F6247143F6387255
:102BD000C0F60001C0F60002FFF78ABDAFF3008027
:102BE00038B504460D46C0B1086043F68031C0F6E2
:102BF00000012046FDF7B4FB241820462021FDF7F4
:102C000037FB286018B1002300F8013B28602078CA
:102C1000002814BF2046002038BD0C68002CE4D1E9
:102C2000204638BDAFF30080AFF30080AFF30080E3
:102C300040F63043C2F200031B607047AFF30080E0
:102C400000B583B042F6C1430090C0F600030020F7
:102C5000FDF7D6FF03B000BDAFF30080AFF30080F7
:102C6000013AF8B50C4605460E468F1829682846E5
:102C70004B694FF0FF31984703B2002B14DB042B54
:102C800018D0082B12D00D2B16D01F2BEEDDBE4214
:102C900038BF06F8010B296828464B694FF0FF3111
:102CA000984703B2002BEADA0120F8BDA642DDD036
:102CB000013EDBE70120F8BD00203070F8BD00BF09
:102CC0002DE9F04F40F63011C2F2000140F6040544
:102CD000CA6943F64073C2F20005C0F6000305F16D
:102CE000080890E8900099B093614646204602A9F2
:102CF0004022FFF7B5FF834600283CD117A902A860
:102D0000FFF76EFF17A982465846FFF769FF034693
:102D1000002848D0584617A91293FFF761FF0346D1
:102D2000002800F08580584617A91393FFF758FF35
:102D3000034600287FD0584617A91493FFF750FF89
:102D4000034600287AD0584617A91593FFF748FF85
:102D5000002876D043F654712046C0F60001FFF7F4
:102D6000C7FC204602A94022CDF858B0FFF778FFF3
:102D700083460028C2D043F648712046C0F60001C1
:102D8000FFF7B6FC202383F3118840F63040002182
:102D9000C2F20000FEF724F80020FDF701FF00203A
:102DA00019B0BDE8F08F81460DF1600E0EEB890C75
:102DB00000204CF8180CBAF1000F97D043F66C7154
:102DC0005046C0F60001FDF72BFA70B9B9F1000FBB
:102DD000D8D043F6107143F66C722046C0F600015D
:102DE000C0F60002FFF784FC80E743F6747150469A
:102DF000C0F60001FDF714FA30B3286840F6040B62
:102E0000C2F2000B40B92EE00BF1080BC5EB0B0230
:102E1000B01850F8080C30B35146FDF701FA0028FD
:102E2000F2D1DBF804302046494612AA98475DE704
:102E30004FF00109B8E74FF00209B5E74FF0030979
:102E4000B2E74FF00409AFE7B9F1000F26D043F61F
:102E5000107143F674722046C0F60001C0F60002FD
:102E6000FFF746FC42E7002F55D03868002852D0C3
:102E700007F10802BB4601920AE001980BF1080B2A
:102E8000C7EB0B0100EB010C5CF8080C002842D0EA
:102E90005146FDF7C5F90028EFD1C2E743F67C7132
:102EA0002046C0F60001FFF723FC2A68A2B140F6D5
:102EB0000409C2F2000943F694712046C0F60001ED
:102EC00009F10809FFF714FCC5EB090208EB020B36
:102ED0005BF8082C002AEED1AFB13A689AB1B94636
:102EE00007F1080A43F69471C0F60001204609F183
:102EF0000809FFF7FDFBC7EB09010AEB010353F8D3
:102F0000082C002AEED143F634712046C0F60001A9
:102F1000FFF7EEFBEAE643F698712046C0F60001A3
:102F20005246FFF7E5FB43F69C712046C0F60001D0
:102F3000FFF7DEFBDAE600BFAFF30080AFF30080FF
:102F400030B540F6FC108DB0C2F200000021FEF753
:102F50006FF940F6FC1043F6F07141F29812C2F29C
:102F60000000C0F60001C2F200020123FEF770F972
:102F700041F29814C2F20004A188E588009143F65A
:102F8000D07122886388019502A8C0F6000100F084
:102F9000A7FB40F6344002A9C2F2000000F040FB5B
:102FA0003220FDF7EDFDE7E7AFF30080AFF30080DF
:102FB00010B540F6E84082B042F6417300244FF469
:102FC00096614022C0F60003C2F200000094FDF7B3
:102FD000BFFD02B010BD00BFAFF30080AFF30080B3
:102FE00010B54FF44064C4F202044FF480514FF422
:102FF0000050208361834FF4FA70FDF7C1FD4FF458
:1030000080434FF4005C23834FF4FA70A4F81AC095
:10301000FDF7B6FD48F200024FF4804122834FF4E1
:10302000FA706183FDF7ACFD4FF4805048F2000365
:1030300020834FF4FA706383FDF7A2FDD5E700BF4C
:10304000082809D807304FF48053012202FA00F013
:10305000C4F2020309B9588370471883704700BF50
:103060002DE9F8434FF0030941F2E0240027C84658
:10307000C2F200044E464D460AE0606848BBA268B2
:10308000002A39D1FDF75CFE4FF4FA70FDF778FDA8
:1030900041F2D020C2F20000FDF742FE2368002B6F
:1030A000EBD030460021FFF7CBFF032E1BBF08F10A
:1030B00001081FFA88F84FF000080FFA88F612BFCF
:1030C0003046404646460121FFF7BAFF60680028B7
:1030D000D5D0281D0021FFF7B3FF032D13D009F130
:1030E00001011FFA81F90FFA89F5281D0121FFF767
:1030F000A7FFA268002AC5D039460820FFF7A0FF25
:1031000087F00107BEE74FF0000904204D46EDE7C8
:1031100041F2D02010B5C2F20000FDF701FE41F2ED
:10312000E02C0024C2F2000C20462146CCF80040DE
:10313000CCF80440CCF80840FFF782FF012021467C
:10314000FFF77EFF02202146FFF77AFF032021468A
:10315000FFF776FF04202146FFF772FF0520214686
:10316000FFF76EFF06202146FFF76AFF0720214682
:10317000FFF766FF08202146FFF762FFFDF7E0FD3D
:103180004FF44063C4F202034FF400625A8310BD4F
:1031900010B541F2F02082B043F2610300244022D6
:1031A0004FF49871C0F60003C2F200000094FDF7DE
:1031B000CFFC41F2A01042F6E1734FF49871402227
:1031C000C0F60003C2F200000094FDF7C1FC02B09B
:1031D00010BD00BFAFF30080AFF30080AFF30080FD
:1031E0002DE9F04143F6A03084B0C0F6000007C8D6
:1031F00000AF3B1D83E8070088B040F658306C46AE
:10320000C2F200008AB01946FEF7DAF86D46A61C35
:103210004FF0000821464FF0FF3311220A48FDF716
:1032200067FE44F220012846C0F60001324684F8C9
:103230000E8000F055FA40F634402946C2F20000F4
:1032400000F0EEF9E6E700BF680B0020AFF3008066
:1032500010B541F2204082B043F2E11300244FF454
:1032600096614022C0F60003C2F200000094FDF710
:103270006FFC02B010BD00BFAFF30080AFF3008061
:1032800000B544F2300187B0421CC0F6000101A82D
:1032900000F026FA40F6344001A9C2F2000000F026
:1032A000BFF907B000BD00BFAFF30080AFF30080EF
:1032B000F0B585B000234FF440651C4600930193A0
:1032C000029303931E46C4F202050127032C03DD7B
:1032D0006420FDF755FC0024296904AA21FA04F0B2
:1032E00002EB840310F0010F53F8102C04D00AB144
:1032F00043F8106C0134E9E7002AFBD1204643F87B
:10330000107CFFF7BDFF0134E0E700BFAFF30080A2
:1033100010B541F6D00082B043F2B12300244FF43F
:10332000D8714022C0F60003C2F200000094FDF7FD
:103330000FFC02B010BD00BFAFF30080AFF3008000
:10334000C368996B4FF47A7C4EF2293201FB0CC3AF
:10335000C6F66322A2FB031CCCEB030140F66023FC
:10336000C2F200030CEB51029842C2F30F3217D0A5
:1033700040F63021C2F20001884217D040F64023C7
:10338000C2F20003984218D040F65021C2F2000168
:10339000884202BF41F68023C2F20003DA80704700
:1033A00041F68020C2F200000280704741F6802C76
:1033B000C2F2000CACF80220704741F68023C2F242
:1033C00000039A80704700BFAFF30080AFF3008026
:1033D00030B543F6B033C0F600030FCB91B00CAC60
:1033E00084E80F0040F660202146C2F20000FDF79D
:1033F0004FFF40F630202146C2F20000FDF748FFA3
:1034000040F640202146C2F20000FDF741FF40F6A1
:1034100050202146C2F20000FDF73AFF40F660203E
:10342000C2F20000FDF744FF40F63020C2F2000077
:10343000FDF73EFF40F64020C2F20000FDF738FFE6
:1034400040F65020C2F20000FDF732FF41F6802422
:10345000C2F20004A18822886388E588009144F2C2
:10346000500102A8C0F60001019500F039F90022D0
:1034700040F6344002A922806280A280E280C2F23B
:10348000000000F0CDF86420FDF77AFBE2E700BF12
:1034900010B541F6882082B043F2D13300244FF4B6
:1034A00096614022C0F60003C2F200000094FDF7CE
:1034B0004FFB02B010BD00BFAFF30080AFF3008040
:1034C000012908D04FF44062C4F202024FF4006CAC
:1034D000A2F81AC0704713681A786F2AF2D15B7885
:1034E0006E2BEFD14FF44061C4F202014FF4006043
:1034F00008837047AFF30080AFF30080AFF3008024
:10350000012970B515462FDD106803786868473BC0
:10351000D9B212299CBF44F2C002C0F6000203785F
:1035200094BF32F911600026422B41F2E023C2F22F
:1035300000031AD041F2D0200024C2F2000043F868
:103540002640FDF7EDFB6968097849B1B600A0197E
:103550003039FFF775FD01346B68195D0029F6D12C
:10356000BDE87040FDF7ECBB70BD012243F826209A
:1035700070BD00BFAFF30080AFF30080AFF30080F9
:10358000FFF7C6BDAFF30080AFF30080AFF300805C
:10359000036810B504462BB11B7F0E2B01D100210F
:1035A000016010BD44F27000C0F600004FF480616D
:1035B0004022FFF745FB206010BD00BFAFF3008045
:1035C00070B54468056848F2B512631CC1F64E3206
:1035D00082FB036CDE17C6EB2C12962606FB123319
:1035E000AB4204D0041943602172002070BD40F644
:1035F000E42044F2F001C2F20000C0F60001FFF73F
:1036000077F84FF0FF3070BDAFF30080AFF300806C
:10361000002303604360A030FDF712BBAFF30080CE
:1036200070B50C460546A030FDF77AFB2178A9B1AC
:103630002846FFF7C5FF14F8011FD0F1010338BF7A
:10364000002300290CBF002303F001030646002BD2
:10365000EED118B1FDF774FB304670BD0A21284643
:10366000FFF7AEFF0D212846FFF7AAFF0646FDF73C
:1036700067FB304670BD00BFAFF30080AFF3008042
:10368000F8B50446A0300E46FDF74AFB2368626891
:1036900093421CD048F2B515C1F64E359627591CF9
:1036A00004EB030E85FB010CCB17C3EB2C1007FBBF
:1036B000101344F20C11236030469EF80820C0F627
:1036C0000001FFF715F8236860688342E7D1BDE881
:1036D000F840FDF735BB00BFAFF30080AFF30080CB
:1036E0000EB42DE9F00F8BB00DF1190213A9019260
:1036F000019E51F8044B06AB43F600754CF6CD42E3
:10370000F61A0DF12307C0F60005099104960097FB
:10371000CCF6CC4203952578002D00F0A780611CE3
:10372000252D1CBF00F8015B0C46F4D166782D2EC8
:1037300018BF4FF0000B00F0A28020252E2E00F0C5
:103740009A80DDF824908C46002409E099F80070F6
:1037500009F1040904EB84041CF8016F07EB44042D
:10376000A6F13007FFB20131092FF3D92A2EEDD08F
:103770002E2ECDF824904FF0000856D0A6F16C07FD
:10378000D7F1000949EB07074C2E08BF47F00107A6
:10379000002F62D00F78002F76D03E4601310127EE
:1037A000A6F1440CBCF1340F00F2C281DFE81CF03A
:1037B0007801C001C001C001C001C001C001C00149
:1037C000C001C001C0017501C001C001C001C0013C
:1037D000C0016C01C001C0012C01C001C001C001C9
:1037E000C001C001C001C001C001C001C001AC00E6
:1037F0007801C001C001C001C001C001C001C00109
:10380000C001C001C0017501C001C001C0016E004E
:10381000C0016C01C001C0012C0199F8007009F1D0
:10382000040908EB880607EB460811F8016BA6F1BE
:10383000300C5FFA8CF7092FF3D92A2EEDD0A6F1C0
:103840006C07CDF82490D7F1000949EB07074C2EFF
:1038500008BF47F00107002F9CD1A6F1410C5FFA89
:103860008CF7192F8CBF0027012799E70BB0BDE813
:10387000F00F03B070474E783025013161E7A11C8D
:10388000A6784FF0010B58E7012789E7099D039FB0
:103890002E1D09962E68002E08BF3E4647F6FF777C
:1038A0003578B8F1000F08BFB846002D00F06381ED
:1038B000F543B04496F801C008EB0507751C07F006
:1038C00001092F46BCF1000F1AD0454518D0B9F1B7
:1038D000000F07D017F801CF0135BCF1000F0FD052
:1038E00045450DD0944605E07A780135013732B16F
:1038F000454504D07A7801350137002AF4D1624673
:10390000C6EB050C202509E0099DDDF810C02E68E6
:10391000043509958DF8186020251E46CCEB04046B
:1039200024EAE474BBF1000F2BD164424CB3302D78
:1039300096F8008014BF00270127B8F12D0F14BF9F
:10394000002707F001072FB12D2700F8017B013672
:103950000CF1FF3C0746001B07F8015B6FEA040807
:10396000874208F001040BD01CB107F8015B8742C5
:1039700006D03C4604F8015B7D70671C8742F8D195
:103980000024BCF1000F20DD074616F8018B07F874
:10399000018B8444C0436044674500F0010013D0AC
:1039A00028B116F8018B07F8018B67450CD030461B
:1039B000B84610F8019B08F8019B76787E7008F1F4
:1039C0000107461C6745F2D16046BCB106460419A2
:1039D00006F8015BC04304EB000CA6420CF00100AA
:1039E0000BD018B106F8015BA64206D0304600F8AD
:1039F000015B7570461CA642F8D120464FF00008C6
:103A000080F800800C4686E64FF01009099E002FD2
:103A10003FD0371D366809970DF1220CB6FBF9FA35
:103A200009FB1A6606F13008B8F1390FC8BF06F174
:103A30003708564667460CF80189002EEED1DDF8AE
:103A400000A0C7EB0A0C03EB0C0ADE430AEB0609E5
:103A50005FEAC976CDF808C09C466FD4894609E074
:103A600097F801807E1C8CF8018096F8018002375F
:103A700001F1010C614601F8018B5145F0D1494635
:103A8000DDF808C01E4649E74FF00A09099E002FDD
:103A9000BFD1371D36680997BEE74FF00809B5E773
:103AA000099E002F59D0371D36680997002EA8BFF0
:103AB0009A4659DB0AF10B09CC460F46A2FB068158
:103AC000C90801EB8108A6EB48080CF1FF3C08F19E
:103AD00030080E468CF800800029EFD1CCEB0909A4
:103AE0006FEA0A06CDF81490D144CDF80890B1449D
:103AF0005FEAC9763946574628D489460AE09CF8D9
:103B000001800CF1010687F8018096F801800CF124
:103B1000020C4F1C3946029E01F8018BB142EED1D6
:103B2000059F0AEB0706C3EB060C49461E46F5E661
:103B30008DF81860DDF810C01E46EFE683F80080AF
:103B40000DF1190C17F8018F894693E757468946FE
:103B500007F8018B1CF8018FDCE7371D36680997E1
:103B6000002EA8BF9A46A5DA2D278DF81870764248
:103B70000DF1190A9EE7AC462025CFE6AFF3008091
:103B800020003900000000000000000000000000DC
:103B900000C2010000000040000000000000000022
:103BA0008025000000000040000000000000000030
:103BB0000000000040420F004133000800000000F8
:103BC00000202020202020202020282828282820ED
:103BD00020202020202020202020202020202020E5
:103BE000208810101010101010101010101010104D
:103BF000100404040404040404040410101010103D
:103C00001010414141414141010101010101010106
:103C10000101010101010101010101011010101058
:103C200010104242424242420202020202020202D8
:103C3000020202020202020202020202101010102C
:103C40002000000000000000000000000000000054
:103C50000000000000000000000000000000000064
:103C60000000000000000000000000000000000054
:103C70000000000000000000000000000000000044
:103C80000000000000000000000000000000000034
:103C90000000000000000000000000000000000024
:103CA0000000000000000000000000000000000014
:103CB0000000000000000000000000000000000004
:103CC00000000000000000000000000000000000F4
:103CD00069646C6500000000000000000000000046
:103CE0006D61696E00160411040448080C10141864
:103CF000001C1D1E0020000000000000000000004D
:103D00004113000821130008D1120008E112000835
:103D10006113000851130008311300081113000843
:103D2000F112000800000000000000000000000088
:103D3000106002400860024000000B002860024052
:103D40000860024006010C0040600240086002402A
:103D500010020D00586002400860024016030E0079
:103D6000706002400C60024000040F008860024056
:103D70000C60024006051000A06002400C6002408A
:103D800010061100B86002400C60024016072F00B8
:103D900010640240086402400008380028640240B1
:103DA0000864024006093900406402400864024089
:103DB000100A3A005864024008640240160B3B00A7
:103DC000706402400C640240000C3C0088640240B5
:103DD0000C640240060D4400A06402400C640240E2
:103DE000100E4500B86402400C640240160F4600F5
:103DF00000960000000000400000000000000000ED
:103E0000A2A2A22A00000000FFFFFFFF56040264E6
:103E1000FFFFFFFF0277065501AA0A008022A800D3
:103E200040020000FFFFFFFF15465155FFFFFFFF57
:103E300000000204407700003DAF200200000000B7
:103E4000FFFFFFFF54254554FFFFFFFF0000006305
:103E5000000606000001405500000000FFFFFFFFC4
:103E600055501500CF0F00000000000000000000BA
:103E70004040555500000000FFFFFFFF10150000F7
:103E8000FFFFFFFF00000000000000000000000036
:103E900000000000FFFFFFFFFFFFFFFFFFFFFFFF2E
:103EA0000000000000000000000000000000000012
:103EB000FFFFFFFFFFFFFFFFFFFFFFFF000000000E
:103EC000000000000000000000000000FFFFFFFFF6
:103ED00050555555FFFFFFFF000000000000000097
:103EE0000000000000000000FFFFFFFFFFFFFFFFDA
:103EF000FFFFFFFF000000000000000000000000C6
:103F0000286E756C6C2900000000000000000000A5
:103F100055736167653A2025730D0A00696E666FF7
:103F2000000000004B65726E656C3A202020202056
:103F3000202025730D0A0000322E342E340000009C
:103F40007368656C6C0000000D0A6C6F676F7574A8
:103F500000000000746F6F206D616E7920617267E0
:103F6000756D656E74730D0A0000000065786974E4
:103F70000000000068656C7000000000436F6D6D0C
:103F8000616E64733A2068656C702065786974208E
:103F9000000000002573200025730000203F0D0A5B
:103FA0000000000000000000000000000000000011
:103FB000546865206669726D776172652069732047
:103FC0007265616479210A0D0000000000000000A4
:103FD0005B49525D204E3A25642C533A25642C5798
:103FE0003A25642C453A25640000000000000000DA
:103FF00001000000040000000000000000000000BC
:104000000000000000000040B0610300000000005C
:1040100000003000000000008BB907000000000025
:104020005B524649445D20257300000000000000FB
:104030005B544F5745525D2064657374726F7965A8
:104040006420256400000000000000000000000063
:104050005B534F4E41525D204E3A25642C533A2516
:10406000642C573A25642C453A2564000000000072
:10407000E40A00208040000800000000000000006A
:10408000A040000881350008A8400008013500085C
:10409000AC400008C134000800000000000000002F
:1040A00072657365740000006C656400696E667209
:1040B0006172656400000000000000000000000064
:1040C00002000000000000000000000000000000EE
:1040D00000000000000000000000000000000000E0
:1040E00000000000010000000000000000000000CF
:1040F000425546464552205049454E4F21212120E8
:104100004552524F524521212100000025630000F5
:10411000C03B00081C3F0008B12B00080000000055
:04412000000000009B
:04000005080001905E
:00000001FF
